:020000022000DC
:10600000000004205D88020085880200F5AA0200D5
:10601000898802008B8802008D8802000000000041
:106020000000000000000000000000008F88020057
:106030009188020000000000938802009588020009
:106040006DE5020097880200C5E0020059F40200E5
:106050009788020097880200C1DD02002DE6020049
:1060600097880200978802009788020097880200AC
:10607000978802009788020097880200978802009C
:1060800097880200FDA70200978802009788020007
:106090003DA8020097880200590403009788020077
:1060A000978802009788020097880200978802006C
:1060B000978802009788020000000000000000009E
:1060C000978802009788020097880200978802004C
:1060D000BDCA0200978802009788020097880200D4
:1060E000978802009788020097880200000000004D
:1060F00000000000978802000000000071F4020018
:10610000000000000000000000000000000000008F
:10611000000000000000000000000000000000007F
:10612000000000000000000000000000000000006F
:10613000000000000000000000000000000000005F
:10614000000000000000000000000000000000004F
:10615000000000000000000000000000000000003F
:10616000000000000000000000000000000000002F
:10617000000000000000000000000000000000001F
:10618000000000000000000000000000000000000F
:1061900000000000000000000000000000000000FF
:1061A00000000000000000000000000000000000EF
:1061B00000000000000000000000000000000000DF
:1061C00000000000000000000000000000000000CF
:1061D00000000000000000000000000000000000BF
:1061E00000000000000000000000000000000000AF
:1061F000000000000000000000000000000000009F
:1062000010B5054C237833B9044B13B10448AFF3F0
:1062100000800123237010BD0060002000000000FA
:1062200000A5030008B5034B1BB103490348AFF3B6
:10623000008008BD000000000460002000A50300ED
:10624000A3F5803A704700BF174B002B08BF134BD4
:106250009D46FFF7F5FF00218B460F461348144A71
:10626000121A0EF00FFB0E4B002B00D098470D4B6F
:10627000002B00D098470020002104000D000D489D
:10628000002802D00C48AFF300800EF0B9FA2000CD
:10629000290000F0C7F80EF09FFA00BF00000800C8
:1062A000000000000000000000000420006000204A
:1062B0005C6D0020000000000000000080B584B08C
:1062C00000AF78607B68002B0AD0074B43F00103D6
:1062D000FB607B689B01BB60FB68B868984700E087
:1062E00000BF1037BD4680BDC056030080B582B0E8
:1062F00000AF78607B68002B0AD04FF47A70FFF70C
:10630000DDFF7B68013B7B607B68002BF5D100E003
:1063100000BF0837BD4680BD90B587B000AFF860BC
:10632000B9607A6000237B613DE0BB685A1CBA60AB
:10633000214A12681978214B99541F4B1B681F4A38
:10634000D35C0A2B03D01C4B1B68FE2B23D11A4BAA
:106350001B681A4AD35C0A2B04D0174B1B68013305
:10636000154A1360144B1B68144A0021D154144A77
:10637000144BD31ADB081B0443F003040F4802F04C
:10638000ADFF03461A461049204603F042F80A4B77
:1063900000221A6004E0084B1B680133064A1360B0
:1063A0007B6901337B617A697B689A42BDDB7B68DC
:1063B00018461C37BD4690BD1C60002020600020A0
:1063C00088A5030050A503009456030080B485B04F
:1063D00000AF7860104B1B68002B02D10E4B0F4AA8
:1063E0001A600D4B1B68FB600B4B1B681A467B68E1
:1063F0001344BB60BB680A4A934202D34FF0FF3399
:1064000003E0054ABB681360FB6818461437BD46B5
:106410005DF8047B704700BF20610020606D0020A4
:10642000608D032080B586B000AF002005F04EFFE0
:1064300005F0E4FE78617B69002B02D0786903F0F7
:106440004FFC002006F0CAFB38613B69002B02D0EC
:10645000386903F045FC4FF40041002002F0CEFC07
:10646000F860FB68002B02D0F86803F039FC02F0FA
:1064700041FC04F0E9F9B860BB68002B02D0B868B1
:1064800003F02EFC05F012FB78607B68002B02D035
:10649000786803F025FC0A20FFF728FF00F0C8FC0D
:1064A000094A0A4BD31ADB081B0443F003030849CB
:1064B000184602F09FFF002100200AF083F80346EF
:1064C00018461837BD4680BD88A5030050A50300B7
:1064D000985603000CB480B5AAB000AF03463960EB
:1064E000FB7107F1B403BB6007F10C00BB68D7F880
:1064F000B020962102F08AF9C7F8A400D7F8A4309A
:10650000952B0BDD2E2387F89E302E2387F89F30A6
:106510002E2387F8A030002387F8A130FB79032BC6
:1065200042D801A252F823F03965020055650200F5
:10653000716502008D6502001F4A204BD31ADB08EB
:106540001B0443F001003A6807F10C031C4902F0F8
:1065500073FF2AE0184A194BD31ADB081B0443F0D7
:1065600002003A6807F10C03154902F065FF1CE0D0
:10657000114A124BD31ADB081B0443F003003A689C
:1065800007F10C030E4902F057FF0EE00A4A0B4BCD
:10659000D31ADB081B0443F003003A6807F10C032D
:1065A000074902F049FF00E000BF00BFA837BD4621
:1065B000BDE8804002B0704788A5030050A50300E5
:1065C000C856030080B584B000AF78607B68002BAC
:1065D0000AD0074B43F00103FB607B689B01BB6063
:1065E000FB68B868984700E000BF1037BD4680BD23
:1065F000E056030080B483B000AF78607B68D3F8C6
:10660000043518460C37BD465DF8047B704780B4EE
:1066100083B000AF78600B46FB70FA787B68134458
:106620001A460123136000BF0C37BD465DF8047B9A
:10663000704780B582B000AF78607B681B681846F1
:10664000FFF7D8FF034618460837BD4680BD80B522
:1066500082B000AF78607B681B6808211846FFF79E
:10666000D6FF00BF0837BD4680BD000090B583B09F
:1066700000AF1B4B1B68002B2DD01A48FFF7D9FF2A
:106680000446174B1B684FF47A7202FB03F31A4659
:106690004FF000034FF000004FF00001D90341EA32
:1066A0005241D003104A4FF000030EF06BFE024639
:1066B0000B461346234423F07F437B6001237A6813
:1066C0000021084806F0D2F838603B68002B02D061
:1066D000386803F005FB00BF0C37BD4690BD00BF16
:1066E00028610020D856030040420F0080B582B0D8
:1066F00000AF0346FB71FB79002B05D10C4B012247
:106700001A70FFF7B3FF0EE0FB79012B03D1094BA1
:1067100001221A7007E0FB79052B04D1064B1B6898
:106720000133054A136000BF0837BD4680BD00BF76
:1067300024610020256100203061002080B582B0F6
:1067400000AF154B1B7883F00103DBB2002B1ED08A
:10675000124A1349134805F0CBFF78607B68002B81
:1067600002D0786803F0BCFA0F4B00221A700F4B6E
:1067700000221A700B48FFF76AFF0121094806F052
:10678000F7F8084806F016F8034B01221A7000BF0C
:106790000837BD4680BD00BF2C610020ED660200B9
:1067A000D0560300D8560300246100202561002044
:1067B00090B585B000AF78607B68002B46D07B68D1
:1067C000C72B03D87868FFF7FDFE3FE0FFF7B6FF61
:1067D000204B00221A702048FFF72BFF04467B68ED
:1067E0001A464FF000034FF000004FF00001D903AC
:1067F00041EA5241D003194A4FF000030EF0C2FDA6
:1068000002460B461346234423F07F43FB600123DB
:10681000FA680121104806F029F8B860BB68002B1F
:1068200005D0B86803F05CFA01E005F057F9094BB0
:106830001B78DBB283F00103DBB2002BF5D1054BF3
:1068400000221A700121044805F0CEFF00BF143762
:10685000BD4690BD25610020D856030040420F0080
:10686000B0B582B000AFFFF769FF2248FFF7E1FE45
:106870007860214B1A6813461B069A1A7B681344EA
:1068800018464FF0000102460B464FF000044FF04F
:1068900000055D0145EAD265540122462B46121AD5
:1068A00063EB01034FF000044FF000059D0045EA43
:1068B0009275940022462B46121841EB03034FF0C9
:1068C00000004FF00001D90041EA5271D0000246A9
:1068D0000B46104619464FF000024FF00003C20B62
:1068E00042EA4142CB0B13463B603B6818460837EF
:1068F000BD46B0BDD85603003061002080B483B0DF
:1069000000AF78607B681B681F2B02D84FF0A04354
:1069100006E07B681B6803F01F027B681A60034B6C
:1069200018460C37BD465DF8047B704700030050E5
:1069300080B584B000AF7860084611461A46034619
:10694000FB700B46BB7013467B703B1D1846FFF770
:10695000D5FFF860FA78BB785B001A437B789B0020
:106960001A433B7E1B0242EA03013B7F1B047A6809
:106970001943FB6802F5E07243F8221000BF10379C
:10698000BD4680BD80B584B002AF7860002301931E
:10699000002300930023012200217868FFF7C8FF3D
:1069A00000BF0837BD4680BD80B584B000AF7860B9
:1069B0003B1D1846FFF7A2FFF860F86800F00AF8E0
:1069C00002467B6822FA03F303F0010318461037EE
:1069D000BD4680BD80B483B000AF78607B68D3F8DB
:1069E000103518460C37BD465DF8047B7047000033
:1069F00080B483B000AF78603960044B01221A7014
:106A000000BF0C37BD465DF8047B70473461002041
:106A1000B0B588B002AF1A4B3C461D460FCD0FC42F
:106A20002B6823604FF0A053BB601A23FB70052333
:106A3000BB7028237B701B233B70FF23BB73012398
:106A40003B7400233B71394600230E4A0E4808F080
:106A5000F9F978617B69002B02D0786903F040F97D
:106A60003B78184600230193032300930023002260
:106A70000121FFF75DFF00BF1837BD46B0BD00BF65
:106A8000F4560300F1690200E856030080B483B0B5
:106A900000AF78600B46FB7000BF0C37BD465DF859
:106AA000047B704780B483B000AF7860044B012250
:106AB0001A7000BF0C37BD465DF8047B704700BFFD
:106AC0003561002080B584B000AF07F02FF8034691
:106AD00083F00103DBB2002B08D006F0DDFFF86085
:106AE000FB68002B02D0F86803F0FAF83B1D002188
:106AF0000A461A800A469A7001233B7101237B7172
:106B00003B1D1F4A1946082007F082F8B860BB6891
:106B1000002B02D0B86803F0E3F80121082007F049
:106B2000E7F83B4600210A461A800A469A703B461F
:106B300019460F2007F00CF83B4619460E2007F0C7
:106B400007F83B4619460D2007F002F80D2007F024
:106B500053F83B4619462B2006F0FAFF2B2007F08E
:106B600040F83B461946042006F0F2FF042007F0E7
:106B700038F81920FFF706FF00BF1037BD4680BD6B
:106B80008D6A020080B582B000AF084A0021084833
:106B900003F090FE78607B68002B02D0786803F0E9
:106BA0009FF800BF0837BD4680BD00BFA56A020040
:106BB000F056030080B58AB000AFF860B9607A6023
:106BC0007B68B3F5005F94BF01230023DBB27B62D7
:106BD0007B6A002B02D1002003F082F87A68B96842
:106BE00012480DF041FE124B00221A700F4B7B61D0
:106BF0007B68BB61BB68FB617B683B6207F1140388
:106C0000002219460B4808F0B3FB01E004F066FFD0
:106C1000074B1B78DBB283F00103DBB2002BF5D10D
:106C200000BF00BF2837BD4680BD00BF0040002028
:106C300034610020E856030080B582B000AF786070
:106C40000E2006F0CEFF0F2006F0CBFF40F6FC0032
:106C5000FFF7AEFDFFF7DCFE00BF0837BD4680BD85
:106C600080B582B000AF78600F2006F0C5FF0E201F
:106C700006F0C2FF054808F015FA4FF4FA60FFF776
:106C800097FD00BF0837BD4680BD00BFE856030032
:106C900080B584B000AF78600023FB6008E00D2071
:106CA00006F09FFF0D2006F0A7FFFB680133FB6095
:106CB000FB68092BF3D90E2006F09EFF034808F06D
:106CC000F1F900BF1037BD4680BD00BFE856030094
:106CD00080B586B000AF78600E2006F082FF4FF4DA
:106CE0009670FFF765FDFFF793FE1B4A07F1080357
:106CF00092E8030018600433198007F108030622A4
:106D000019460120FFF756FF00237B6108E00D20A4
:106D100006F067FF0D2006F06FFF7B6901337B6192
:106D20007B69022BF3D94FF4FA60FFF741FD002392
:106D30003B6108E00D2006F054FF0D2006F05CFFDB
:106D40003B6901333B613B69092BF3D900BF00BFAD
:106D50001837BD4680BD00BF08570300B0B586B0E8
:106D600000AF786039603B68002B31D03B68184633
:106D70004FF000014FF000024FF00003CB0343EA55
:106D80005043C20312F5FA7443F100054FF47A72CE
:106D90004FF00003204629460EF0F4FA02460B4657
:106DA00013467B61204B00221A707B69042B01D8AB
:106DB00005237B611D4B00227969184603F0AEFD67
:106DC00038613B69002B09D0386902F089FF05E082
:106DD000154B01221A7001E004F080FE0820FFF735
:106DE000E3FD0346002B07D10F4B1B78DBB283F08A
:106DF0000103DBB2002BEFD10C4B184603F0C2FDB0
:106E0000F860FB68002B02D0F86802F069FF0820E8
:106E1000FFF7CAFD0346002B14BF01230023DBB29A
:106E200018461837BD46B0BD3561002038610020D6
:106E300080B500AFFFF746FEFFF7A4FE012318461A
:106E400080BD000080B400AF044B07EE903AB0EE76
:106E5000670ABD465DF8047B704700BF001BB74B57
:106E600080B400AF024B1846BD465DF8047B704706
:106E70001057030080B485B000AFB9607A603B6002
:106E80000346FB737A683B689A4204D2BA687B680F
:106E90001344FA7B1A7000BF1437BD465DF8047BBB
:106EA000704780B485B000AFB9607A603B6003463C
:106EB000FB7300BF1437BD465DF8047B704780B597
:106EC00084B000AFB9607A603B600346FB73FB7B24
:106ED000002B06D0BB681B68BA685168FA7B104665
:106EE000984700BF1037BD4680BD80B485B000AF65
:106EF000786039607B68FB6002E0FB680133FB600F
:106F0000FB681B78002B04D03B685A1E3A60002BAC
:106F1000F3D1FA687B68D31A18461437BD465DF87A
:106F2000047B704780B483B000AF0346FB71FB79EC
:106F30002F2B04D9FB79392B01D8012300E0002342
:106F400003F00103DBB218460C37BD465DF8047B45
:106F5000704780B584B000AF78600023FB600EE01E
:106F6000FA6813469B0013445B0018467B681B6855
:106F7000591C7A6811601B780344303BFB607B68C6
:106F80001B681B781846FFF7CDFF0346002BE7D19F
:106F9000FB6818461037BD4680BD90B587B000AF7E
:106FA000F860B9607A603B607B683B617B6B03F0A3
:106FB0000203002B25D17B6B03F00103002B20D1B2
:106FC000FB6A7B610AE07A68531C7B60FC683B6863
:106FD000B9682020A0477B6901337B617A693B6BEC
:106FE0009A42F0D30DE0FB6A013BFB62BA6AFB6A8E
:106FF000134418787A68531C7B60FC683B68B96856
:10700000A047FB6A002BEED17B6B03F00203002B41
:107010000ED007E07A68531C7B60FC683B68B96857
:107020002020A0477A683B69D31A3A6B9A42F1D87C
:107030007B6818461C37BD4690BD80B588B004AF4C
:10704000F860B9607A603B603B6B03F00203002B91
:1070500036D1FB6A002B18D03B6B03F00103002BE9
:1070600013D097F82030002B04D13B6B03F00C03B6
:10707000002B0AD0FB6A013BFB6206E0FB695A1C4D
:10708000FA61BA69134430221A70FA69BB6A9A42EB
:107090000AD2FB691F2BF1D906E0FB695A1CFA6181
:1070A000BA69134430221A703B6B03F00103002BC2
:1070B00006D0FA69FB6A9A4202D2FB691F2BECD90F
:1070C0003B6B03F01003002B58D03B6B03F4806341
:1070D000002B16D1FB69002B13D0FA69BB6A9A42C8
:1070E00003D0FA69FB6A9A420BD1FB69013BFB6151
:1070F000FB69002B05D07B6A102B02D1FB69013B99
:10710000FB617B6A102B0FD13B6B03F02003002B3C
:107110000AD1FB691F2B07D8FB695A1CFA61BA69AF
:10712000134478221A701FE07B6A102B0FD13B6B3F
:1071300003F02003002B0AD0FB691F2B07D8FB6943
:107140005A1CFA61BA69134458221A700CE07B6A1F
:10715000022B09D1FB691F2B06D8FB695A1CFA6167
:10716000BA69134462221A70FB691F2B06D8FB69A7
:107170005A1CFA61BA69134430221A70FB691F2B3A
:1071800024D897F82030002B07D0FB695A1CFA61ED
:10719000BA6913442D221A7018E03B6B03F0040304
:1071A000002B07D0FB695A1CFA61BA6913442B22E1
:1071B0001A700BE03B6B03F00803002B06D0FB6951
:1071C0005A1CFA61BA69134420221A703B6B03936C
:1071D000FB6A0293FB690193BB6900933B687A6881
:1071E000B968F868FFF7D9FE034618461037BD4660
:1071F00080BD80B596B008AFF860B9607A603B603A
:1072000000237B633B6C002B03D17B6D23F01003C9
:107210007B657B6D03F48063002B02D03B6C002BFD
:1072200033D03B6CBA6CB3FBF2F2B96C01FB02F2E7
:107230009B1A87F8333097F83330092B04D897F826
:1072400033303033DAB20DE07B6D03F02003002BD6
:1072500001D0412200E0612297F833301344DBB2C1
:107260000A3BDAB27B6B591C796307F138010B4496
:1072700003F8282C3A6CBB6CB2FBF3F33B643B6C19
:10728000002B02D07B6B1F2BCBD97B6D06933B6D04
:107290000593FB6C0493BB6C039397F84430029303
:1072A0007B6B019307F1100300933B687A68B96820
:1072B000F868FFF7C2FE034618463837BD4680BD62
:1072C00080B596B008AFF860B9607A603B60002383
:1072D0007B63D7E91023134303D13B6E23F01003E4
:1072E0003B663B6E03F48063002B03D0D7E9102389
:1072F000134338D0D7E91001D7E914230EF042F830
:10730000134687F8333097F83330092B04D897F8B1
:1073100033303033DAB20DE03B6E03F02003002B44
:1073200001D0412200E0612297F833301344DBB2F0
:107330000A3BDAB27B6B591C796307F138010B44C5
:1073400003F8282CD7E91423D7E910010EF01AF816
:1073500002460B46C7E91023D7E91023134302D096
:107360007B6B1F2BC6D93B6D3A6E0692FA6D059268
:10737000BA6D0492039397F8483002937B6B0193A4
:1073800007F1100300933B687A68B968F868FFF763
:1073900054FE034618463837BD4680BD0000000045
:1073A00090B59DB004AF78613961FA60BB6087ED3C
:1073B000000B0023FB654FF000024FF00003C7E90C
:1073C0001023D7E90023D7E900010DF061FF034640
:1073D000002B0FD1BB6F03937B6F029303230193A9
:1073E000A94B0093BB68FA6839697869FFF7D5FD46
:1073F00003462BE24FF0FF326FF48013D7E9000110
:107400000DF050FF0346002B0FD0BB6F03937B6F33
:107410000293042301939D4B0093BB68FA6839697A
:107420007869FFF7BAFD034610E24FF0FF32984B40
:10743000D7E900010DF054FF0346002B1DD0BB6FB0
:1074400003F00403002B01D0924B00E0924BBA6F83
:1074500002F00402002A01D0042200E00322B96FE6
:107460000391796F029101920093BB68FA683969C0
:107470007869FFF792FD0346E8E17FA3D3E9002393
:10748000D7E900010DF02CFF0346002B09D17CA3A6
:10749000D3E90023D7E900010DF004FF0346002BD8
:1074A0000FD0BB6F02937B6F01933B6F009397EDFF
:1074B000000BBB68FA683969786900F0D1F90346B6
:1074C000C4E1002387F85B304FF000024FF0000367
:1074D000D7E900010DF0E6FE0346002B0ED0012394
:1074E00087F85B30D7E900234FF000004FF0000130
:1074F0000DF0AEFA02460B46C7E90023BB6F03F45A
:107500008063002B0ED106233B670BE0FB6D5A1CFA
:10751000FA6507F160021344302203F8482C3B6FF0
:10752000013B3B67FB6D1F2B02D83B6F092BEDD84E
:10753000D7E900010DF0DEFE03467B65786D0DF0A6
:10754000D5FB02460B46D7E900010DF081FA024651
:107550000B4610461946514A3B6FDB001344D3E9F2
:1075600000230DF02DFC02460B46C7E90E23D7E998
:107570000E010DF0E7FE03463B65386D0DF0A6FBEE
:1075800002460B46D7E90E010DF062FA02460B46A1
:10759000C7E910234FF00002414BD7E910010DF06D
:1075A0009FFE0346002B16D03B6D01333B65386DC3
:1075B0000DF08CFB394A3B6FDB001344D3E9002309
:1075C0000DF084FE0346002B1AD000233B657B6D33
:1075D00001337B6514E04FF00002314BD7E9100115
:1075E0000DF060FE0346002B0AD13B6D002B04D04A
:1075F0003B6D03F00103002B02D03B6D01333B6573
:107600003B6F002B34D1786D0DF070FB02460B46BA
:10761000D7E900010DF01CFA02460B46C7E910231A
:1076200001231C464FF000021D4BD7E910010DF05D
:1076300039FE0346002B01D100231C46E3B283F040
:107640000103DBB2002B09D14FF00002144BD7E944
:1076500010010DF045FE0346002B67D07B6D03F053
:107660000103002B00F085807B6D01337B6580E09A
:107670003B6FFB6437E000BF0000000065CDCD41EB
:107680000000000065CDCDC14C57030050570300EA
:10769000FFFFEF7F58570300605703006857030050
:1076A0000000E03FFB6C013BFB64396D694BA3FBC1
:1076B0000123DA0813469B0013445B00CA1AD2B2B6
:1076C000FB6D591CF9653032D2B207F160010B44F1
:1076D00003F8482C3B6D5F4AA2FB0323DB083B65A4
:1076E0003B6D002B03D0FB6D1F2BDBD90AE000BFE5
:1076F00008E0FB6D5A1CFA6507F160021344302262
:1077000003F8482CFB6D1F2B04D8FB6C5A1EFA643F
:10771000002BEED1FB6D1F2B2BD8FB6D5A1CFA658D
:1077200007F1600213442E2203F8482C21E07A6D01
:10773000494B83FB02139910D317C91A0B469B00C0
:107740000B445B00D11ACAB2FB6D591CF96530328B
:10775000D2B207F160010B4403F8482C7B6D3E4A1E
:1077600082FB03129210DB17D31A7B657B6D002B13
:1077700003D0FB6D1F2BDAD900E000BFBB6F03F015
:107780000203002B24D1BB6F03F00103002B1FD099
:107790007B6F002B15D097F85B30002B04D1BB6FAB
:1077A00003F00C03002B0CD07B6F013B7B6708E0E0
:1077B000FB6D5A1CFA6507F160021344302203F88E
:1077C000482CFA6D7B6F9A4202D2FB6D1F2BEFD9CA
:1077D000FB6D1F2B2AD897F85B30002B09D0FB6D6F
:1077E0005A1CFA6507F1600213442D2203F8482C55
:1077F0001CE0BB6F03F00403002B09D0FB6D5A1C87
:10780000FA6507F1600213442B2203F8482C0DE0BF
:10781000BB6F03F00803002B08D0FB6D5A1CFA6500
:1078200007F160021344202203F8482CBB6F039336
:107830007B6F0293FB6D019307F118030093BB6804
:10784000FA6839697869FFF7A8FB03461846643778
:10785000BD4690BDCDCCCCCC67666666000000000E
:107860002DE9F04F9DB006AFF861B9617A613B61D7
:1078700087ED020BD7E90223D7E902010DF008FDDD
:107880000346002B14D04FF0FF32C34BD7E902015F
:107890000DF026FD0346002B0AD14FF0FF326FF4A6
:1078A0008013D7E902010DF0FDFC0346002B12D036
:1078B000D7F888300293D7F884300193D7F8803016
:1078C000009397ED020B3B697A69B969F869FFF794
:1078D00067FD034645E201231E464FF000024FF0CC
:1078E0000003D7E902010DF0DDFC0346002B01D1B6
:1078F00000231E4687F84B6097F84B30002B05D0CD
:10790000BB68BB60FB6883F00043FB60D7F888303E
:1079100003F48063002B02D10623C7F88030D7E937
:107920000223C7E90823D7E908014FF000024FF00E
:1079300000030A0D00231346C3F30A03A3F2FF3327
:107940007B64D7E908234FF0FF30944902EA000432
:1079500003EA01054FF00002914B44EA020845EAB0
:107960000309C7E90889786C0DF0C0F97EA3D3E953
:1079700000230DF025FA02460B46104619467CA35B
:10798000D3E900230DF066F802460B4614461D4667
:10799000D7E908014FF00002824B0DF059F802467A
:1079A0000B461046194674A3D3E900230DF008FADC
:1079B00002460B46204629460DF04CF802460B467F
:1079C000104619460DF096FC03467B65786D0DF068
:1079D0008DF96BA3D3E900230DF0F2F902460B46B3
:1079E000104619464FF000026F4B0DF033F8024677
:1079F0000B46104619460DF07DFC03467B64786DFE
:107A00000DF074F960A3D3E900230DF0D9F9024613
:107A10000B4614461D46786C0DF068F95CA3D3E95B
:107A200000230DF0CDF902460B46204629460DF005
:107A30000FF802460B46C7E90E23D7E90E23D7E914
:107A40000E010DF0BDF902460B46C7E90C237B6C15
:107A500003F2FF3318464FEAE0714FF000024FF097
:107A6000000303050022C7E90823D7E90845D7E941
:107A70000E0102460B460CF0EDFF02460B46904607
:107A80009946D7E90E234FF000004FF080410CF0EB
:107A9000DFFF02460B4692469B464FF00002434BE7
:107AA000D7E90C010DF0B6FA02460B46104619460E
:107AB0004FF000023E4B0CF0CDFF02460B46D7E9DB
:107AC0000C010DF0A7FA02460B46104619464FF07E
:107AD0000002384B0CF0BEFF02460B46D7E90C0102
:107AE0000DF098FA02460B46504659460CF0B2FF8C
:107AF00002460B46404649460DF08CFA02460B46BC
:107B0000104619464FF00002254B0CF0A3FF024629
:107B10000B46204629460DF053F902460B46C7E9AD
:107B20000823D7E90823D7E902010DF0BBFB034680
:107B3000002B0DD07B6D013B7B65D7E908014FF031
:107B400000021B4B0DF066FA02460B46C7E90823FC
:107B50007B6D632B30DC7B6D13F1630F2CDB042317
:107B60002BE000BFAFF30080FB799F501344D33F5D
:107B7000B3C8608B288AC63F61436F63A787D23F33
:107B800071A379094F930A401655B5BBB16B0240FA
:107B9000EF39FAFE422EE63FFFFFEF7FFFFF0F00B7
:107BA0000000F03F0000F83F0000E03F00002C40E4
:107BB000000024400000184005233B65D7F88830BA
:107BC00003F40063002B3DD069A3D3E90023D7E978
:107BD00002010DF07BFB0346002B24D066A3D3E902
:107BE0000023D7E902010DF05DFB0346002B1AD0FC
:107BF000D7F880307A6D9A4207DAD7F880207B6D0B
:107C0000D31A013BC7F8803002E00023C7F8803068
:107C1000D7F8883043F48063C7F8883000233B6589
:107C200000237B650EE0D7F88030002B0AD0D7F810
:107C3000883003F48063002B04D0D7F88030013BF8
:107C4000C7F88030D7F88430FB64D7F884203B6DC8
:107C50009A4204D9FA6C3B6DD31AFB6401E000230D
:107C6000FB64D7F8883003F00203002B04D03B6D8F
:107C7000002B01D00023FB647B6D002B09D0D7E9DA
:107C80000823D7E902010DF0C5F902460B46C7E902
:107C900002237B69FB6297F84B30002B06D0BB6850
:107CA0003B60FB6883F000437B6003E097ED027B61
:107CB00087ED007BD7F8883023F400630293FB6CD8
:107CC0000193D7F88030009397ED000B3B697A69F8
:107CD000B969F869FFF764FB78613B6D002B3FD011
:107CE000D7F8883003F02003002B01D0452000E0B6
:107CF00065207A69531C7B61FC693B69B969A047BF
:107D00007B6D002BB8BF5B4218467B6DDB0FDBB28F
:107D10003A6D013A052105910492002203920A224C
:107D20000292019300903B697A69B969F869FFF79B
:107D300060FA7861D7F8883003F00203002B0FD087
:107D400007E07A69531C7B61FC693B69B9692020B3
:107D5000A0477A69FB6AD31AD7F884209A42F0D8F0
:107D60007B6918465C37BD46BDE8F08FAFF30080F5
:107D70002D431CEBE2361A3F0000000080842E41A8
:107D8000B0B5A0B00AAFF860B9607A603B6000237C
:107D90007B64BB68002B40F09484A04BFB6000F038
:107DA00090BC3B681B78252B0DD03B6818787A6C0B
:107DB000531C7B64FC687B68B968A0473B6801334F
:107DC0003B6000F07EBC3B6801333B6000237B6579
:107DD0003B681B78203B102B56D801A252F823F0A9
:107DE000617E0200897E0200897E0200757E0200AB
:107DF000897E0200897E0200897E0200897E02005F
:107E0000897E0200897E0200897E02004D7E02008A
:107E1000897E0200397E0200897E0200897E02008E
:107E2000257E02007B6D43F001037B653B680133D7
:107E30003B600123BB642AE07B6D43F002037B655A
:107E40003B6801333B600123BB6420E07B6D43F062
:107E500004037B653B6801333B600123BB6416E090
:107E60007B6D43F008037B653B6801333B60012376
:107E7000BB640CE07B6D43F010037B653B68013312
:107E80003B600123BB6402E00023BB6400BFBB6C0A
:107E9000002B9DD100233B653B681B781846FFF7FC
:107EA00041F80346002B05D03B461846FFF751F832
:107EB000386518E03B681B782A2B14D1BB6E1A1D5D
:107EC000BA661B683B633B6B002B07DA7B6D43F0A4
:107ED00002037B653B6B5B423B6501E03B6B3B65B3
:107EE0003B6801333B600023FB643B681B782E2B0F
:107EF00024D17B6D43F480637B653B6801333B6039
:107F00003B681B781846FFF70DF80346002B05D099
:107F10003B461846FFF71DF8F8640FE03B681B78F6
:107F20002A2B0BD1BB6E1A1DBA661B68FB62FB6A5B
:107F300023EAE373FB643B6801333B603B681B78D7
:107F4000683B122B66D801A252F823F0BF7F0200D3
:107F500015800200F57F020015800200997F020063
:107F600015800200158002001580020015800200B5
:107F7000158002001580020015800200E57F0200D6
:107F80001580020015800200158002001580020095
:107F900015800200058002007B6D43F480737B65D1
:107FA0003B6801333B603B681B786C2B34D17B6DA5
:107FB00043F400737B653B6801333B602CE07B6DD1
:107FC00043F080037B653B6801333B603B681B7873
:107FD000682B25D17B6D43F040037B653B68013303
:107FE0003B601DE07B6D43F480737B653B68013330
:107FF0003B6016E07B6D43F400737B653B680133A7
:108000003B600EE07B6D43F480737B653B6801331E
:108010003B6006E000BF04E000BF02E0A36E020088
:1080200000BF3B681B78253B532B00F23D8301A228
:1080300052F823F091860200A9860200A986020068
:10804000A9860200A9860200A9860200A98602006C
:10805000A9860200A9860200A9860200A98602005C
:10806000A9860200A9860200A9860200A98602004C
:10807000A9860200A9860200A9860200A98602003C
:10808000A9860200A9860200A9860200A98602002C
:10809000A9860200A9860200A9860200A98602001C
:1080A000A9860200A9860200A9860200A98602000C
:1080B000A98602005F840200138402005F8402002C
:1080C000A9860200A9860200A9860200A9860200EC
:1080D000A9860200A9860200A9860200A9860200DC
:1080E000A9860200A9860200A9860200A9860200CC
:1080F000A9860200A9860200A9860200A9860200BC
:1081000085810200A9860200A9860200A9860200D4
:10811000A9860200A9860200A9860200A98602009B
:10812000A9860200A986020085810200CB84020094
:10813000858102005F840200138402005F840200D4
:10814000A986020085810200A9860200A986020094
:10815000A9860200A9860200A98602008581020084
:1081600003860200A9860200A98602003F8502005C
:10817000A986020085810200A9860200A986020064
:10818000858102003B681B78782B03D03B681B7805
:10819000582B02D110233B6413E03B681B786F2BF4
:1081A00002D108233B640CE03B681B78622B02D1B0
:1081B00002233B6405E00A233B647B6D23F010033C
:1081C0007B653B681B78582B03D17B6D43F0200304
:1081D0007B653B681B78692B07D03B681B78642B59
:1081E00003D07B6D23F00C037B657B6D03F4806310
:1081F000002B03D07B6D23F001037B653B681B786C
:10820000692B04D03B681B78642B40F08E807B6D1B
:1082100003F40073002B2FD0BB6E073323F007034A
:1082200003F10802BA66D3E90023C7E90423D7E9BA
:108230000423002A73F1000102DA524263EB430384
:10824000104619467B69DB0FDCB23B6C1A464FF0D7
:1082500000037D6D08953D6D0795FD6C0695CDE994
:1082600004230294CDE900017B687A6CB968F86850
:10827000FFF726F87864C8E07B6D03F48073002B69
:108280001ED0BB6E1A1DBA661B68FB61FB69002B12
:10829000B8BF5B421946FB69DB0FDBB27A6D059212
:1082A0003A6D0492FA6C03923A6C02920193009137
:1082B0007B687A6CB968F868FEF79BFF7864A4E085
:1082C0007B6D03F04003002B05D0BB6E1A1DBA6610
:1082D0001B685BB20EE07B6D03F08003002B05D0C2
:1082E000BB6E1A1DBA661B681BB203E0BB6E1A1D7B
:1082F000BA661B683B623B6A002BB8BF5B421946FB
:108300003B6ADB0FDBB27A6D05923A6D0492FA6C30
:1083100003923A6C0292019300917B687A6CB9687F
:10832000F868FEF766FF78646FE07B6D03F4007316
:10833000002B20D0BB6E073323F0070303F10802A4
:10834000BA66D3E90023396C08464FF000017C6D12
:1083500008943C6D0794FC6C0694CDE9040100215F
:108360000291CDE900237B687A6CB968F868FEF762
:10837000A7FF786449E07B6D03F48073002B16D06F
:10838000BB6E1A1DBA661B687A6D05923A6D04922F
:10839000FA6C03923A6C02920022019200937B687D
:1083A0007A6CB968F868FEF724FF78642DE07B6D7D
:1083B00003F04003002B05D0BB6E1A1DBA661B6884
:1083C000DBB20EE07B6D03F08003002B05D0BB6EAB
:1083D0001A1DBA661B689BB203E0BB6E1A1DBA6613
:1083E0001B687B627B6D05933B6D0493FB6C039371
:1083F0003B6C0293002301937B6A00937B687A6C49
:10840000B968F868FEF7F5FE78643B6801333B60B5
:1084100057E13B681B78462B03D17B6D43F020036B
:108420007B65BB6E073323F0070303F10802BA66CE
:1084300093ED007B7B6D02933B6D0193FB6C00938E
:10844000B0EE470AF0EE670A7B687A6CB968F868A4
:10845000FEF7A6FF78643B6801333B6031E13B687F
:108460001B78672B03D03B681B78472B03D17B6DB0
:1084700043F400637B653B681B78452B03D03B6866
:108480001B78472B03D17B6D43F020037B65BB6ECC
:10849000073323F0070303F10802BA6693ED007B6C
:1084A0007B6D02933B6D0193FB6C0093B0EE470A2A
:1084B000F0EE670A7B687A6CB968F868FFF7D0F964
:1084C00078643B6801333B60FBE00123FB637B6D19
:1084D00003F00203002B0ED107E07A6C531C7B647F
:1084E000FC687B68B9682020A047FB6B5A1CFA63C4
:1084F0003A6D9A42F1D8BB6E1A1DBA661B68D8B2A3
:108500007A6C531C7B64FC687B68B968A0477B6D00
:1085100003F00203002B0ED007E07A6C531C7B643F
:10852000FC687B68B9682020A047FB6B5A1CFA6383
:108530003A6D9A42F1D83B6801333B60C1E0BB6EB3
:108540001A1DBA661B68BB63FB6C002B01D0FB6C69
:1085500001E04FF0FF331946B86BFEF7C6FC7863B5
:108560007B6D03F48063002B05D07A6BFB6C934228
:1085700028BF13467B637B6D03F00203002B1AD1E7
:1085800007E07A6C531C7B64FC687B68B968202028
:10859000A0477B6B5A1C7A633A6D9A42F1D80AE085
:1085A000BB6B5A1CBA6318787A6C531C7B64FC68EA
:1085B0007B68B968A047BB6B1B78002B09D07B6D2B
:1085C00003F48063002BEBD0FB6C5A1EFA64002B83
:1085D000E6D17B6D03F00203002B0ED007E07A6C2E
:1085E000531C7B64FC687B68B9682020A0477B6BC8
:1085F0005A1C7A633A6D9A42F1D83B6801333B606A
:108600005FE008233B657B6D43F021037B6500231E
:1086100087F82B3097F82B30002B1ED0BB6E1A1D1D
:10862000BA661B681A464FF00003796D0891396DE0
:108630000791F96C06914FF010004FF00001CDE961
:10864000040100210291CDE900237B687A6CB968AE
:10865000F868FEF735FE786416E0BB6E1A1DBA6640
:108660001B681A467B6D05933B6D0493FB6C03936B
:10867000102302930023019300927B687A6CB968FF
:10868000F868FEF7B6FD78643B6801333B6018E09C
:108690007A6C531C7B64FC687B68B9682520A04712
:1086A0003B6801333B600CE03B6818787A6C531CE4
:1086B0007B64FC687B68B968A0473B6801333B601A
:1086C00000BF3B681B78002B7FF46BAB7A6C7B6838
:1086D0009A4202D37B685A1E00E07A6CFC687B6881
:1086E000B9680020A0477B6C18465837BD46B0BD1E
:1086F00080B586B002AFF860B9607A603B603B68D5
:1087000000937B68BA68F9680348FFF739FB0346B2
:1087100018461037BD4680BD756E020080B588B022
:1087200002AFF860B9607A603B60FB683B61BB6890
:108730007B6107F110013B6800937B684FF0FF32CB
:108740000348FFF71DFB034618461837BD4680BD9A
:10875000BF6E020080B584B000AF03463960FB7184
:108760003B68FB60FB68B3F8C8305A1C91B2FA68EA
:10877000A2F8C8101946FB68FA795A54FB68B3F896
:10878000C830C82B09D1FB68C82219460020FDF764
:10879000C3FDFB680022A3F8C82000BF1037BD4608
:1087A00080BD00000FB480B5B6B000AF154A07F128
:1087B00008031146CA2218460CF056F807F1E403E4
:1087C0007B6007F108017B68D7F8E0200E48FFF7CF
:1087D000A5FFC7F8D400B7F8D030002B08D0B7F801
:1087E000D0301A4607F1080319460020FDF794FD22
:1087F000D7F8D4301846D837BD46BDE8804004B01D
:10880000704700BFBC5703005587020080B584B095
:1088100000AFF860B9607A603B603B687A68B9681D
:10882000F868FFF765FF034618461037BD4680BD60
:1088300080B483B000AF786039607B681B88262BDA
:1088400003D1054B00221A7000E000BF00BF0C37B7
:10885000BD465DF8047B7047586100200649074A11
:10886000074B9B1A03DD043BC858D050FBDC03F0D8
:10887000A3FAFDF7E9FC0000E8A50300982A002010
:1088800000600020FEE7FEE7FEE7FEE7FEE7FEE70A
:10889000FEE7FEE7FEE7FEE780B584B000AF786054
:1088A0007B68002B0AD0074B43F00103FB607B6819
:1088B0009B01BB60FB68B868984700E000BF1037B9
:1088C000BD4680BDA058030080B582B000AF78607F
:1088D0007B68002B0AD04FF47A70FFF7DDFF7B68CE
:1088E000013B7B607B68002BF5D100E000BF0837BF
:1088F000BD4680BD80B500AF07F068FD00BF80BDFC
:1089000080B588B000AFF860B9607A607B68002BF2
:1089100033D00023FB610323BB61BA68FB691344B6
:108920007A681946002007F001FD7861FA697B69D1
:108930001344FB617A687B69D31A7B607B69002BE7
:1089400013D1104B1B7883F00103DBB2002B13D142
:108950000120FFF7B9FFBB69013BBB61BB69002B7D
:1089600003D1084B00221A7007E0064B01221A704F
:108970007B68002BD1D100E000BF00BF2037BD468F
:1089800080BD00BF5961002080B584B002AF78601F
:108990003960064B00934023054A3968786800F037
:1089A0001DF800BF0837BD4680BD00BF0189020029
:1089B0005C61002080B483B000AF786000BF0C37EA
:1089C000BD465DF8047B704780B483B000AF78602B
:1089D00000BF0C37BD465DF8047B704780B5A0B082
:1089E00002AFF860B9607A603B60B86802F032FFAD
:1089F0007B68FB643B683B6500237B65002387F84D
:108A000058300023FB65D7F880303B6600237B6736
:108A100007F134017B6F0822B86802F0DFFF0823FA
:108A20007B67FB6B3B643B8FA7F844307B8FA7F8D9
:108A30004630002387F8493097F8343003F00303B9
:108A4000DBB2012B29D17B6BC3F39523BB6697F86F
:108A50003430C3F3C203DBB287F84830BB8EC3F3B4
:108A60008313DBB27B667B6E9A0007F11C017B6F80
:108A7000B86802F0B3FF7B6E9B007A6F13447B678C
:108A800007F1400207F11C0107F14C030093134664
:108A90007A6EB86E01F00AF832E097F8343003F0DD
:108AA0000303DBB2022B2BD1FB8EC3F389139BB2E2
:108AB0003B6797F83430C3F3C203DBB287F8483022
:108AC0003B6F082B28BF0823FB6607F114017B6F5F
:108AD000FA6EB86802F082FF7A6FFB6E13447B6710
:108AE0003A6FFB6ED31A3B6707F14C0307F1400264
:108AF00007F11400F96E01F07BF83B6F002BDFD11A
:108B0000B86802F0B7FE00BF7837BD4680BD80B5BB
:108B100082B000AF78607B680433184607F0A6F88F
:108B200000BF0837BD4680BD80B586B000AFF86095
:108B3000B9601346FB7100237B61FB680433FA794B
:108B4000B968184607F008F978617B691846183744
:108B5000BD4680BD80B483B000AF78603960044BFF
:108B600001221A7000BF0C37BD465DF8047B7047C8
:108B7000DC610020B0B58CB000AF0346FB711A4B2E
:108B800007F108041D460FCD0FC495E80F0084E8D7
:108B90000F001023BB604FF0FF33FB604FF0FF333B
:108BA0003B614FF0FF337B614FF0EB733B62FB792E
:108BB000002B01D00D4A00E0002207F108031946FE
:108BC0000B4804F009F9F862FB6ABB62BB6A002B30
:108BD00002D0B86A01F084F8064AFB79137000BF2E
:108BE0003037BD46B0BD00BFA8580300558B02000A
:108BF000982A0020DD61002080B582B000AF0023FC
:108C0000FB71FB791846FFF7B5FF00BF0837BD467B
:108C100080BD000080B588B000AFF860B9607A60B0
:108C20007B68FB77114B00221A70FB7F1A46B968EC
:108C30000F48FFF779FFB861BB697B617B69002B47
:108C400002D0786901F04CF800BF0A4B1B78002B6A
:108C500007D0064B1B78DBB283F00103DBB2002B9D
:108C6000F3D100BF2037BD4680BD00BFDC610020CE
:108C7000982A0020DD61002080B584B002AF7860C2
:108C80003960064B00934023054A39687868FFF73E
:108C9000A5FE00BF0837BD4680BD00BF158C020091
:108CA0009C61002080B483B000AF786000BF0C37B7
:108CB000BD465DF8047B704780B582B000AF786038
:108CC0000448FFF724FF0020FFF754FF00BF0837D8
:108CD000BD4680BD982A002080B483B000AF786084
:108CE0007B68DB6801225A7100BF0C37BD465DF816
:108CF000047B704780B582B000AF4FF0FF337B60DC
:108D0000FFF7F8FD04210A4800F0E2FD786008480A
:108D1000FFF7E2FFFFF770FF0421064800F0D8FDDF
:108D200078600448FFF7D8FF00BF0837BD4680BD14
:108D3000C0A50300D0A5030080B582B000AF786065
:108D400039607B681B681B6839687868984700BF82
:108D50000837BD4680BD80B582B000AF78607B68C3
:108D60001B685B687868984700BF0837BD4680BDC0
:108D700080B582B000AF78607B681B689B687868BC
:108D8000984700BF0837BD4680BD80B483B000AFB0
:108D900078600B46FB707B68DB68FA781A7100BF5D
:108DA0000C37BD465DF8047B704780B483B000AFDC
:108DB00078607B68DB681B7918460C37BD465DF828
:108DC000047B704780B483B000AF78607B68DB6859
:108DD00001225A7100BF0C37BD465DF8047B704715
:108DE00080B483B000AF78607B68DB685B7918463D
:108DF0000C37BD465DF8047B7047000080B584B039
:108E000000AF78603960154BFF229A60134B002247
:108E10001A60124B00225A60104B0022C3F818242B
:108E20000E4B0022C3F814240C4B012283F820249B
:108E30000B4802F075FCF860FB68002B01D0FB6862
:108E400008E0084802F062FE074A084BD31ADB0824
:108E5000BB60002318461037BD4680BD4863002024
:108E60003CA50300F8580300C0A5030050A503006B
:108E700080B400AF044A054BD31ADB081846BD4640
:108E80005DF8047B704700BFC0A5030050A5030038
:108E900080B586B000AF78600B46FB70FB78002B86
:108EA0001FD0FFF7E5FF386100237B6113E07B698A
:108EB0009B000E4A1344FB60FB681B881A467B68C4
:108EC0001B689A4204D17B687A691A60002309E022
:108ED0007B6901337B617A693B699A42E7D3052359
:108EE00000E0002318461837BD4680BDFC2C00204A
:108EF00080B584B000AF78600B46FB70FA783B1DFC
:108F000011461846FFF7C4FF0346002B07D17B68C4
:108F1000DB00054A1344FB60FB681B6800E000238C
:108F200018461037BD4680BD50A5030080B485B0FB
:108F300000AF78600B46FB707B68DB00144A13447B
:108F4000BB60FB78013B032B18D801A252F823F039
:108F5000618F0200678F02006D8F0200758F020023
:108F60000223FB730DE00423FB730AE0BB681B794B
:108F7000FB7306E0BB685B79FB7302E00023FB73C5
:108F800000BFFB7B18461437BD465DF8047B704775
:108F900050A5030080B485B000AF7860396000232D
:108FA000FB737B681B7803F00403DBB2002B23D038
:108FB0007B681B78C3F30103DBB2012B02D0022BC9
:108FC0000CD017E03B681B687A681288C2F38312E2
:108FD000D2B213449A1C3B681A600BE03B681B68D2
:108FE0007A685288C2F3891292B213449A1C3B6881
:108FF0001A6000BF0123FB73FB7B18461437BD4684
:109000005DF8047B7047000080B58AB000AF002394
:10901000FB84384801F037FF374801F034FF374B05
:109020005B683B61354B9B68BB613A69BB69134028
:1090300002339B00314A134404333B6207F11003AF
:109040001946386AFFF7A6FF0346002B09D03A6994
:10905000BB69134002339B00284A134404333B622C
:10906000ECE700BF0023FB6111E03B695A1C3A6149
:10907000BA691340FA699200391D0A441F49023344
:109080009B000B445B681360FB690133FB61FB6968
:10909000012BEAD93B79C3F30103DBB2012B0DD0DD
:1090A000022B16D17B89FB84FB88C3F389139BB207
:1090B00003339A083B6913443B610BE07B89FB84D3
:1090C000BB88C3F38313DBB21A463B6913443B618D
:1090D00000E000BF084801F0E3FE78617B69002BE7
:1090E00002D03B69054A5360FB8C18462837BD46C1
:1090F00080BD00BF606700205C67002048630020DF
:1091000080B584B000AF0021074801F001FEF8608F
:10911000FB68BB60BB6883F310037B607B68184609
:109120001037BD4680BD00BF6467002080B588B0A1
:1091300000AFF860B9607A603B60FB681B0CBB61F4
:10914000FFF7DEFFF861FB6919043B685A1CBB6A34
:109150001340BA690A431B4902339B000B445A600F
:109160003A68BB6A134002339B00164A1344043327
:109170007B61FB6803F00703D9B27A69137861F366
:10918000C50313707B6803F00F03D9B27A691388A3
:1091900061F389131380BB68C3F315017A691368FF
:1091A00061F39F2313607A691378012161F301034E
:1091B00013707A6913786FF38203137000BF20373E
:1091C000BD4680BD4863002080B58CB000AFF8601C
:1091D000B9601346FB71FB680233BB62012387F859
:1091E00027300023FB7607F11B03184601F06AFCC9
:1091F000384B1A68BB681A60364B9A68354B596809
:10920000344B1B68CB1A13440133FB6214E0012179
:10921000314801F0F9FDFFF7F7FEF861F9692E48D2
:1092200001F0F2FD2B4B9A682A4B5968294B1B68B9
:10923000CB1A13440133FB62BA6AFB6A9A42E6D83E
:1092400097F82730002B3BD000237B61FB79002B64
:1092500011D03B7D012262F301033B753B7D43F05E
:1092600004033B75FB6803F00F03DAB2BB8A62F3B9
:109270008913BB8210E03B7D022262F301033B7540
:109280003B7D43F004033B75FB68C3F309039AB2CB
:10929000FB8A62F38F13FB820E4B1A680D4B9B689F
:1092A000134002339B000B4A134404333B627A6938
:1092B0003B6A1A60074B1A68BB6A1344054A13607D
:1092C000FB7E184601F009FC97F827301846303726
:1092D000BD4680BD486300206467002080B586B02D
:1092E00000AF78601C4B93F82034002B02D17B68D0
:1092F000002B01D17B682BE078680BF08DFB0346D7
:1093000001333B6107F1100207F10C0101231348FF
:1093100002F01EFC0346002B19D1FB683A697968FC
:1093200018460BF0A1FAFA683B69013B134400228E
:109330001A703B691946094802F077FC78613B696D
:109340001946064802F0A5FC7861FB6800E000239E
:1093500018461837BD4680BD48630020F858030002
:1093600080B58AB002AFF860B9607A603B60204B8C
:109370009B687B6107F11003012219463868FFF7EB
:1093800023FF0346002B24D03B690233FB610023FB
:10939000BB6111E0BB699B007A681A44FB69591CE8
:1093A000F96179690B401268114902339B000B4443
:1093B0005A60BB690133BB61BA693B689A42E9D321
:1093C0003A697B69009313463A68B968F868FFF711
:1093D000ADFE074B93F82034002B05D000BF00F002
:1093E00085F80346002BFAD100BF2037BD4680BD6B
:1093F0004863002080B582B000AF786039600023F8
:10940000002239687868FFF7ABFF00BF0837BD4618
:1094100080BD80B586B000AFF860B9607A607B68C7
:109420007B6107F114020123B968F868FFF798FF20
:1094300000BF1837BD4680BD80B586B000AFF8606C
:10944000B9607A603B607B683B613B687B6107F198
:1094500010020223B968F868FFF782FF00BF1837CF
:10946000BD4680BD80B588B000AFF860B9607A6055
:109470003B607B687B613B68BB61BB6AFB6107F15A
:1094800014020323B968F868FFF76AFF00BF2037AA
:10949000BD4680BD80B588B000AFF860B9607A6025
:1094A0003B607B683B613B687B61BB6ABB61FB6A7D
:1094B000FB6107F110020423B968F868FFF750FF59
:1094C00000BF2037BD4680BD80B400AF064B5A6850
:1094D000054B1B689A420CBF01230023DBB21846E0
:1094E000BD465DF8047B70474863002080B598B0A6
:1094F00000AFFFF7E9FF0346002B01D00023A9E1ED
:10950000924B0022C3F81824BFF34F8F00BF8F4B3C
:109510005B683B618D4B9B683B643A693B6C1340D5
:1095200002339B00894A134404337B640023FB65A8
:109530000023BB650023FB6307F110031946786C19
:10954000FFF728FD0346002B19D0804BD3F81834C1
:10955000002B14D17D4B1A683B699A4205D87B4B8E
:109560001B687A4A5360002374E13A693B6C1340EC
:1095700002339B00754A134404337B64DCE7002309
:109580007B6511E03B695A1C3A613A6C13407A6D75
:109590009200391D0A446D4902339B000B445B68FD
:1095A00013607B6D01337B657B6D012BEAD93B79C1
:1095B00003F00303DBB2022B40F09280FB88C3F37D
:1095C00089139BB27B63FB88C3F389139BB2502B37
:1095D00028BF50239BB23B633B6BC3F309039AB292
:1095E000FB8862F38F13FB803B6B0833FB623B7994
:1095F000C3F3C203DBB2FB63F96A554802F09CF87F
:10960000F865FB6D002B00F0C480F86D02F022F9C4
:10961000391DBB6D0822F86D02F0CAF9BB6D083325
:10962000BB653B69DA433B6C134001339B00BB6273
:109630003A6BBB6A9A423DD9BB6A002B08D03A69A3
:109640003B6C134002339B00404A1344043300E058
:10965000404B3B62BB6A002B02D0BB6ADBB201E02D
:109660003B6BDBB2FB77BB6A002B01D0394B00E0D0
:109670000023BB61BB6A002B06D03B6BDAB2BB6A2E
:10968000DBB2D31ADBB200E00023FB75FA7FBB6DBF
:10969000396AF86D02F08CF9FB7FBA6D1344BB6533
:1096A000BB69002B15D0FA7DBB6DB969F86D02F06E
:1096B0007FF90EE03A693B6C134002339B00234A6A
:1096C000134404337B62BB6D3A6B796AF86D02F028
:1096D0006FF97B6B03339A083B6913443B6158E095
:1096E0003B7903F00303DBB2012B52D1BB88C3F3F8
:1096F0008313DBB2062B28BF0623DAB2BB8862F3E2
:109700008913BB80BB88C3F38313DBB20233BB6313
:109710003B79C3F3C203DBB2FB63BB6B9B0019460F
:109720000B4802F009F8F865FB6D002B31D0F86D9D
:1097300002F090F8391DBB6D0822F86D02F038F97F
:10974000BB6D0833BB6500237B651AE048630020CE
:109750003CA50300546300203B695A1C3A613A6CF3
:10976000134002339B003D4A1344191DBB6D042274
:10977000F86D02F01DF9BB6D0433BB657B6D0133E1
:109780007B65BB88C3F38313DBB21A467B6D9342C0
:10979000E2D3FB6D002B3DD0304BD3F810343B654A
:1097A0002E4BD3F81834002B1BD0F86D02F062F862
:1097B0004AE0002387F84F30386DFFF711FB03466E
:1097C000002B02D0012387F84F3097F84F30002B41
:1097D00003D0F96D386DFFF7AFFA3B6DDB681B689E
:1097E0003B653B6D002BE4D1F86D02F043F800239C
:1097F000FB70FB1C184601F065F9184BD3F81834C0
:10980000002B02D13B69154A5360FB78184601F0E2
:1098100064F919E0114BD3F81034BB6406E0B86C5E
:10982000FFF7A6FABB6CDB681B68BB64BB6C002B44
:10983000F5D10B4A0B4BD31ADB081B0443F0020390
:1098400009491846FFF7D6FDFFF73EFE034683F0B1
:109850000103DBB218466037BD4680BD4863002077
:1098600088A5030050A503000859030080B584B003
:1098700000AF0023FB6020E0144BD3F81034BB6032
:109880000123FB710EE0B868FFF78FFA03461A4612
:10989000FB68934202D10023FB7106E0BB68DB68E2
:1098A0001B68BB60BB68002BEDD1FB79002B01D09E
:1098B000FB6807E0FB680133FB60FB68092BDBDD1D
:1098C0004FF0FF3318461037BD4680BD4863002077
:1098D00080B584B000AF78600B46FB70FFF7C6FF21
:1098E000F860FB68B3F1FF3F01D1FB6822E0FB6841
:1098F000DBB219467868FFF748FA104BD3F81034FA
:10990000002B08D10D4A7B68C2F810347B68DB68F5
:1099100000221A600DE0094BD3F81034DA687B6836
:10992000DB6812681A60054BD3F81034DB687A687C
:109930001A60FB6818461037BD4680BD486300209A
:1099400080B582B000AF0D4BD3F810347B600B4B69
:10995000012283F8202409E07868FFF733FA786859
:10996000FFF7F9F97B68DB681B687B607B68002B7D
:10997000F2D100BF00BF0837BD4680BD486300205C
:1099800080B483B000AF7860396000BF0C37BD464B
:109990005DF8047B7047000090B585B002AF786039
:1099A00039607B68DB88002B0AD07B68DB881A462D
:1099B0001F4B009313461F4A1F49386801F052FBA2
:1099C0007B681B7A052B2ED07B685B7A002B12D02C
:1099D0007B689B881A467B681B7A19461046FFF7FE
:1099E000A5FA03461A46154B53F822301A46144975
:1099F000386801F037FB7B681B6819463868FFF749
:109A0000BFFF7B681B7A1A460E4B53F822407B68D7
:109A10009B8800211846FFF76BFA034622460A4945
:109A2000386801F01FFB00BF0C37BD4690BD00BF7A
:109A30003C5903004C59030084590300C82A0020F4
:109A40009C590300B42A0020A059030080B584B0BB
:109A500000AFF860B9601346FB71FB681B7A052BF9
:109A60000FD0FB685B7A002B06D00D4B1B681A46A3
:109A70000C49B86801F0F6FA0B49B86801F0F2FA3F
:109A800006E0FB79002B03D00749B86801F0EAFA39
:109A9000B86801F0CEFA00BF1037BD4680BD00BFE8
:109AA000C82A00209C590300AC590300B0B58AB005
:109AB00004AFF860B9607A603B60BB6A1B7BFB75E2
:109AC000BB6A00221A73B96A3868FFF765FF7B68C2
:109AD000062B7FD801A252F823F000BFF99A0200AA
:109AE000039B0200139B0200279B0200459B020080
:109AF0006D9B02009D9B0200F968B86A01F0B2FA02
:109B000069E0BB681B681A46F968B86A01F0AAFAEE
:109B100061E0BB681A68BB6804331B68F968B86AFF
:109B200001F0A0FA57E0BB681A68BB6804331968F3
:109B3000BB6808331B6800930B46F968B86A01F0EC
:109B400091FA48E0BB681968BB6804331868BB68C1
:109B500008331B68BA680C321268019200930346FE
:109B60000A46F968B86A01F07DFA34E0BB68186803
:109B7000BB6804331C68BB6808331B68BA680C32C6
:109B80001268B96810310968029101920093234666
:109B90000246F968B86A01F065FA1CE0BB681C6807
:109BA000BB6804331D68BB6808331B68BA680C3295
:109BB0001268B96810310968B868143000680390F9
:109BC0000291019200932B462246F968B86A01F08F
:109BD00049FA00E000BF0022B96A3868FFF736FF93
:109BE000BB6AFA7D1A7300BF1837BD46B0BD00BF0F
:109BF00080B586B000AFF860B9607A603B60BB6842
:109C0000082B5CD83B681B7BFB743B6800221A73F3
:109C100039687868FFF7C0FE00237B6114E07A6939
:109C2000BB689A4209D2FA687B6913441B781A46CA
:109C30002549386801F016FA03E02449386801F034
:109C400011FA7B6901337B617B69072BE7D92049D6
:109C5000386801F007FA00237B6124E07A69BB6869
:109C60009A4219D2FA687B6913441B78BB74BB7C97
:109C70007E2B0AD8BB7C0133164A13441B7803F0B1
:109C80009703002B01D0BB7C00E02E231A4612491B
:109C9000386801F0E7F903E01049386801F0E2F9AB
:109CA0007B6901337B617B69072BD7D90122396836
:109CB0007868FFF7CBFE3B68FA7C1A7300E000BFC0
:109CC0001837BD4680BD00BFB0590300B859030026
:109CD000BC590300F8A30300C0590300C459030092
:109CE00080B586B000AF78600023FB6000233B6145
:109CF0007B687B6107F10C031A46002144F20100E6
:109D000000F01CF800BF1837BD4680BD80B400AF1E
:109D1000BFF34F8F00BF074BDB6803F4E0620549D8
:109D2000054B1343CB60BFF34F8F00BF00BF00BF95
:109D3000FCE700BF00ED00E00400FA0580B584B048
:109D400000AFF860B9607A6072B600BFFFF7F8FD47
:109D500000BFFFF7CBFB0346002BFAD1114A124B91
:109D6000D31ADB081B0443F0010310491846FFF720
:109D700041FB0F4B1B6803F00103002B00D000BE1A
:109D8000084A094BD31ADB081B0443F002030949B4
:109D90001846FFF72FFBFFF7B9FF00BF1037BD468E
:109DA00080BD00BF88A5030050A50300C85903006B
:109DB000F0ED00E0D459030080B483B000AF034657
:109DC000FB71FB7903F01F02074997F907305B0924
:109DD000012000FA02F241F8232000BF0C37BD46F3
:109DE0005DF8047B704700BF00E100E080B483B001
:109DF00000AF0346FB71FB7903F01F02074997F997
:109E000007305B09012000FA02F2203341F82320D9
:109E100000BF0C37BD465DF8047B704700E100E0F1
:109E200080B483B000AF0346FB71FB7903F01F02DF
:109E3000074997F907305B09012000FA02F2403325
:109E400041F8232000BF0C37BD465DF8047B704706
:109E500000E100E080B483B000AF0346FB71FB7902
:109E600003F01F02074997F907305B09012000FA48
:109E700002F2603341F8232000BF0C37BD465DF885
:109E8000047B704700E100E080B483B000AF03467C
:109E90003960FB7197F90730002B0BDA3B68DAB2B7
:109EA0000C49FB7903F00F03043B5201D2B20B447F
:109EB0001A7609E03B68DAB2074997F90730520190
:109EC000D2B20B4483F8002300BF0C37BD465DF8C7
:109ED000047B704700ED00E000E100E080B584B055
:109EE00000AF78607B68002B0AD0074B43F001037A
:109EF000FB607B689B01BB60FB68B868984700E02B
:109F000000BF1037BD4680BDF059030080B582B058
:109F100000AF7860054A7B68C2F808350621112039
:109F2000FFF7B2FF00BF0837BD4680BD00100140FB
:109F300080B500AF0D4B4FF48032C3F844230B4B78
:109F40004FF48032C3F804231120FFF783FF112060
:109F5000FFF732FF054B01221A602F20FFF7BEFFEB
:109F6000034B01221A7000BF80BD00BF00100140EA
:109F70008A68002080B500AF1120FFF737FF0F4B34
:109F80004FF48032C3F848230C4B4FF48032C3F8AF
:109F900008230A4B01225A602F20FFF79FFF074B2F
:109FA00001229A60064B00221A602F20FFF796FFCD
:109FB000044B00221A7000BF80BD00BF001001409A
:109FC0007C6800208A68002080B400AF034BD3F87F
:109FD00004351846BD465DF8047B7047001001400B
:109FE00080B483B000AF786039607A683B68D31A78
:109FF00023F07F4318460C37BD465DF8047B70475D
:10A0000080B483B000AF7860044A7B68C2F8403502
:10A0100000BF0C37BD465DF8047B7047001001405F
:10A0200080B487B000AF7860294B1B68002B03D148
:10A03000274A7B68136045E07B681A68244B1B68DD
:10A040001B689A4210D8224B1B6819687B681A68F3
:10A050001F4B1B688A1A1A601D4B1A687B68DA61ED
:10A060001B4A7B6813602DE07B681B68FB60184B04
:10A070001B687B61164B1B683B6109E03B691B68F1
:10A08000FA68D31AFB603B697B613B69DB693B6122
:10A090003B69002B04D03B691B68FA689A42EDD8F3
:10A0A0003B69002B05D03B691A68FB68D21A3B69F3
:10A0B0001A607B68FA681A607B683A69DA617B69C2
:10A0C0007A68DA6100BF1C37BD465DF8047B7047D3
:10A0D0007868002080B586B000AF7860294B1B6897
:10A0E000FB60284B1B687B617B693B6108E03A6938
:10A0F0007B689A4208D03B697B613B69DB693B61C5
:10A100003B69002BF3D100E000BF3B69002B01D17C
:10A11000002333E07A693B699A4214D1194B1B68DA
:10A12000DB69184A1360174B1B68002B0BD1164BC9
:10A1300001229A60154B00221A60154B01221A70F9
:10A140002F20FFF7CBFE3B691B68BB603B69DA69D8
:10A150007B69DA617B69DB693B613B69002B05D078
:10A160003B691A68BB681A443B691A60054B1B6857
:10A17000FA689A4214BF01230023DBB2184618374D
:10A18000BD4680BD78680020001001407C6800203A
:10A190008B68002080B500AF1120FFF741FE00BFA3
:10A1A00080BD80B500AF1420FFF73AFE00BF80BD30
:10A1B00080B582B000AF78607B685B697A6892692D
:10A1C0001046984700BF0837BD4680BD80B584B0B3
:10A1D00000AF2B4B1B68002B4ED000237B60FFF79A
:10A1E000F3FE0246274B1B6819461046FFF7F8FEA0
:10A1F000B860234B1B68FB601DE0FB681B68BA68F6
:10A200009A421CD3FB681B68BA68D31ABB60FB6810
:10A210001B687A6813447B60FB683B60FB68DB6902
:10A22000FB603B681B7C002B05D03B6800221A7446
:10A230003868FFF7BDFFFB68002BDED100E000BFF0
:10A24000114B1A78114B1B789A420CD10F4B1B788B
:10A250000133DAB20D4B1A700C4B1B78022B02D172
:10A260000A4B00221A70094B1B781946084A7B6872
:10A2700042F82130FFF795FF00BF1037BD4680BD83
:10A28000786800207C6800208868002089680020A9
:10A290008068002080B483B000AF7860194B1A78D2
:10A2A000194B1B789A4223D0164B1B780133DAB234
:10A2B000144B1A70134B1B78022B02D1114B002246
:10A2C0001A70104B1B781A46104B53F822207B68EB
:10A2D0001A607B681A680E4B1B6813440C4A1360A3
:10A2E0000B4B1B6823F07F43094A1360012303E0F3
:10A2F0007B6800221A60002318460C37BD465DF8C3
:10A30000047B7047886800208968002080680020EE
:10A310007C68002080B489B000AFF860B9607A60D2
:10A320000023FB6138E0224B1B68BB61BB691B68E3
:10A33000FA689A4206D2BB691A68FB68D21ABB69EE
:10A340001A602EE0BB691B68FA68D31AFB60BB6910
:10A350001B68FA691344FB61BB6900221A60144B45
:10A360001B687B61BB69DB69114A1360BB69DB68F1
:10A37000002B11D0BA68FB69134423F07F42BB69FC
:10A380005A60BB69DA68BB699A607B681A68BB6906
:10A39000DA617B687A691A60054B1B68002BC2D1B1
:10A3A00000BF00BF2437BD465DF8047B704700BF87
:10A3B0007868002080B588B000AF78600023FB7714
:10A3C000654B1B687B61A9E07B68002B05D07B682F
:10A3D000BB61BB69DB697B6060E0604B1B781A4640
:10A3E00013465B001344DB005C4A134404333B61B7
:10A3F0005A4B1B780133DAB2584B1A70574B1A7804
:10A40000564B9B789A4202D1544B00221A703B69FA
:10A410005B68BB613B691B78032B1DD0032B7DDC84
:10A42000012B1ED0022B79D13B695B681846FFF7E0
:10A4300051FE0346002B01D00123FB77BB690022AC
:10A440001A746BE0444B1B68FB60FB6800221A74B3
:10A45000FB68DB69404A13603F4B1B68002BF1D15E
:10A460005CE000BFBB691B7C002B00D056E03B6961
:10A470009A68BB695A603B69DA68BB699A603B6954
:10A480001A69BB69DA603B695A69BB699A61344BE6
:10A490001B78002B02D0BB6900225A60BB695A6846
:10A4A000304B1B68D31A23F07F432F4A93420ED8B8
:10A4B000BB695B682B4A126811461846FFF790FD8E
:10A4C0000246BB699B681A44BB691A6017E0254BBA
:10A4D0001A68BB695B6819461046FFF781FDB860D2
:10A4E000BB699B68BA689A4206D2BB699A68BB6826
:10A4F000D21ABB691A6002E0BB6900221A60BB690C
:10A5000000225A60BB6900229A60BB6901221A745A
:10A51000BB690022DA61B869FFF782FD7B68002B16
:10A520007FF452AF0D4B1A780C4B5B789A427FF454
:10A530004BAFFB7F002B04D1074B1B687A699A4213
:10A5400001D0012300E0002303F00103DBB2184631
:10A550002037BD4680BD00BF786800206C670020B2
:10A560008B6800207C680020FEFF7F0090B589B0DA
:10A5700000AF7860274B1B68002B44D0254B1B682D
:10A580001B68FB61FFF720FDB861234B1B687B61F3
:10A590007969B869FFF724FD034603333B611F4B1C
:10A5A0001B7883F00103DBB2002B01D0FFF7C0FC66
:10A5B0003A69FB69934238BF13467A6913447B6159
:10A5C0007B6923F07F437B617869FFF719FDFFF713
:10A5D000FBFCF860B969F868FFF702FD0346DC1C74
:10A5E000B9697869FFF7FCFC03469C420DD9FFF777
:10A5F000EBFC03461846FFF703FD2F20FFF76EFC28
:10A60000FFF7C8FD01E0FFF7B5FC00BF2437BD46EA
:10A6100090BD00BF786800207C6800208A68002018
:10A6200080B586B000AF00237B600023FB75164B1E
:10A630001B683B61154B1B68FB603B461846FFF7E8
:10A6400029FE0346FB72FB7A002B07D03B683A1DBC
:10A6500039691846FFF75EFE0123FB757B681846D3
:10A66000FFF7A8FE0346002B01D00123FB75FB7DFD
:10A67000002B02D0F868FFF779FF054B00221A7013
:10A6800000BF1837BD4680BD7C6800207868002078
:10A690008B68002080B483B000AF0346FB71044A8E
:10A6A000FB79537000BF0C37BD465DF8047B7047E3
:10A6B0006C67002080B485B000AF7860134B5B7886
:10A6C0000133FB73114B9B78FA7B9A4201D1002333
:10A6D000FB730E4B1B78FA7B9A4201D100230EE0EC
:10A6E0007B68FA7B1A70094B5B781A4613465B004D
:10A6F0001344DB00054A13440433BB60BB681846AF
:10A700001437BD465DF8047B704700BF6C670020BE
:10A7100080B588B000AFF860B9607A603B60002314
:10A72000FB610023BB7507F11603184600F0CAF958
:10A7300007F117031846FFF7BDFFB861BB69002B8F
:10A7400002D10423FB6117E0BB6901221A70BB69C7
:10A75000FA685A60FFF738FC0246BB699A60BB6929
:10A76000BA68DA60BB697A681A61BB693A685A618B
:10A77000FB7D1846FFF78EFFBB7D184600F0ADF954
:10A78000FB69002B01D1FFF70CFDFB691846203750
:10A79000BD4680BD80B586B000AF78600B46FB70CB
:10A7A00000237B610023BB7307F10E03184600F002
:10A7B00089F907F10F031846FFF77CFF38613B6901
:10A7C000002B02D104237B6109E03B69FA781A70FF
:10A7D0003B697A685A60FB7B1846FFF75BFFBB7BDF
:10A7E000184600F07AF97B69002B01D1FFF7D9FCFC
:10A7F0007B6918461837BD4680BD000080B500AFA4
:10A800000D4B0022C3F840210B4B0022C3F844211A
:10A81000094B0022C3F84821074B0022C3F84C2102
:10A82000054B0022C3F80021034B0022C3F804218A
:10A83000FFF7CCFC00BF80BD0010014080B500AF29
:10A84000FFF7EEFE00BF80BD80B500AFFFF792FBC3
:10A85000134B00221A70124B00225A70104B0B221D
:10A860009A70104B00221A600F4B00221A700F4B87
:10A8700000221A701420FFF7EDFA06211420FFF7CA
:10A8800003FB1420FFF798FA0020FFF73FFBFFF7C8
:10A890009BFB0346064A13600023184680BD00BF99
:10A8A0006C67002078680020886800208968002094
:10A8B0007C68002080B487B000AFF8600B467A60F7
:10A8C000FB72154B9B78002B01D108231DE07B68A0
:10A8D000002B01D1072318E0FB68002B01D10723CF
:10A8E00013E0FB681B681B7C002B01D008230CE0E5
:10A8F000FB681B687B617B6900221A747B69FA7AAA
:10A900005A747B697A685A61002318461C37BD4621
:10A910005DF8047B704700BF6C67002080B586B08F
:10A9200000AFF860B9607A60FB687B61144B9B787C
:10A93000002B01D108231EE0FB68002B01D1082366
:10A9400019E0BB68042B01D8072314E07B695B691D
:10A95000002B01D108230EE07B695B7C012B01D128
:10A96000BB6800E000233B617B683A69B96878699D
:10A97000FFF7CEFE034618461837BD4680BD00BF20
:10A980006C67002080B584B000AF78607B68FB60A6
:10A990000D4B9B78002B01D1082310E07B68002B26
:10A9A00003D0FB685B69002B01D1082307E0FB683B
:10A9B00000221A740221F868FFF7ECFE03461846DD
:10A9C0001037BD4680BD00BF6C67002080B483B0E7
:10A9D00000AFEFF310833B603B687B6072B600BF53
:10A9E0007B6818460C37BD465DF8047B704780B421
:10A9F00000AF62B600BF00BFBD465DF8047B704784
:10AA000080B584B000AF7860FFF7E0FFF860164BC8
:10AA10009B68002B1BD1144B01229A60134BD3F877
:10AA20008020134B1340104A1360104B104AC3F898
:10AA300080200E4BD3F884300B4A53600B4B4FF001
:10AA4000FF32C3F884207B6800221A7002E07B6822
:10AA500001221A70FB68002B01D1FFF7C8FF002309
:10AA600018461037BD4680BD886C002000E100E02C
:10AA7000FC06FFBD80B584B000AF0346FB710F4BF1
:10AA80009B68002B15D0FB79002B12D1FFF79EFF9E
:10AA9000F8600B4A094B1B681360094A074B5B6857
:10AAA0005360064B00229A60FB68002B01D1FFF730
:10AAB0009EFF002318461037BD4680BD886C0020DD
:10AAC00000E100E080B582B000AF78607868FFF701
:10AAD00097FF00BF0837BD4680BD80B582B000AF8C
:10AAE0000346FB71FB791846FFF7C4FF00BF083728
:10AAF000BD4680BD1EF0040F1CBFEFF309800AE0C5
:10AB0000EFF308800549064A884201D8904202D8EE
:10AB10008D464FF00000034B184700000000042052
:10AB200000E0032071AB020000BF00BF80B400AFA3
:10AB3000BFF34F8F00BF074BDB6803F4E0620549AA
:10AB4000054B1343CB60BFF34F8F00BF00BF00BF67
:10AB5000FCE700BF00ED00E00400FA0580B582B01C
:10AB600000AF7860FFF7E2FF00BF0837BD4680BD49
:10AB700090B589B002AF7860FEF7E2FE00BFFEF745
:10AB8000B5FC0346002BFAD17B683B61544B9B6AB2
:10AB9000FB603B69002B35D0524A534BD31ADB087C
:10ABA0001B0443F001003B699B691A464F49FEF7BD
:10ABB00030FC4C4A4C4BD31ADB081B0443F0010019
:10ABC0003B6919683B695C683B699B683A69D26874
:10ABD0000192009323460A464549FEF75BFC414A31
:10ABE000414BD31ADB081B0443F001003B691A698F
:10ABF0003B6959693B69DB6900930B463D49FEF7A8
:10AC000031FC0AE0374A384BD31ADB081B0443F007
:10AC1000010339491846FEF7EDFB314BDB6A03F0BF
:10AC20000203002B0AD02F4A2F4BD31ADB081B0438
:10AC300043F0010331491846FEF7DCFB00237B613A
:10AC400020E001227B6902FA03F31A46FB681340F5
:10AC5000002B14D02A4A7B6952F82330002B0ED0E7
:10AC6000204A214BD31ADB081B0443F00100244A7D
:10AC70007B6952F823301A462249FEF7CAFB7B69EA
:10AC800001337B617B69192BDBD9FB6803F08003FF
:10AC9000002B0CD0134A144BD31ADB081B0443F0CF
:10ACA00001030F4A526B18491846FEF7B2FBFB68C6
:10ACB00003F40043002B0CD00A4A0B4BD31ADB08D9
:10ACC0001B0443F00103064A926B10491846FEF735
:10ACD000A0FB7868FFF742FF00BF1C37BD4690BD60
:10ACE00000ED00E098A5030050A50300045A0300FE
:10ACF0001C5A0300545A03007C5A0300B05A030044
:10AD0000EC2A0020F45A0300005B0300205B0300E0
:10AD100090B486B000AF786039607B683A6853E8D9
:10AD2000004F104643E8000191F0000FF7D17C611D
:10AD30003861F9607B6918461837BD4690BC70478A
:10AD400090B486B000AF786039607B683A6853E8A9
:10AD5000004F44EA020043E8000191F0000FF6D1F1
:10AD60007C613861F9607B6918461837BD4690BC34
:10AD7000704790B486B000AF786039607B683A68FD
:10AD800053E8004F44EA020043E8000191F0000F4D
:10AD9000F6D17C613861F9603B6918461837BD46C9
:10ADA00090BC704790B486B000AF786039607B6823
:10ADB0003A6853E8004F04EA020043E8000191F0CA
:10ADC000000FF6D17C613861F9607B69184618374D
:10ADD000BD4690BC704790B486B000AF78603960D3
:10ADE0007B683A6853E8004F04EA020043E8000138
:10ADF00091F0000FF6D17C613861F9603B6918462B
:10AE00001837BD4690BC704790B486B000AF7860EC
:10AE100039607B683A6853E8004F04EB020043E86E
:10AE2000000191F0000FF6D17C613861F9603B6957
:10AE300018461837BD4690BC704790B486B000AF36
:10AE4000786039607B683A6853E8004FA4EB0200F1
:10AE500043E8000191F0000FF6D17C613861F960A0
:10AE60003B6918461837BD4690BC704780B582B024
:10AE700000AF786001217868FFF762FF034618464B
:10AE80000837BD4680BD80B582B000AF7860012133
:10AE90007868FFF76EFF034618460837BD4680BD49
:10AEA00080B582B000AF786000217868FFF77AFF44
:10AEB000034618460837BD4680BD80B582B000AF56
:10AEC000786000217868FFF786FF03461846083748
:10AED000BD4680BD80B483B000AF78600B46FB7088
:10AEE0007B68DA68FB787968098A01FB03F313440D
:10AEF00018460C37BD465DF8047B704780B483B0BC
:10AF000000AF786039603B687A68D2689B1A7A68CB
:10AF1000128AB3FBF2F3DBB218460C37BD465DF87C
:10AF2000047B704780B485B000AF78607B68002BED
:10AF300001D10E231CE07B689A687B685B68D31A9A
:10AF4000FB737B681B687A6852681A6006E07B684E
:10AF50001A681368591C1160FA7B1A70FB7B5A1E21
:10AF6000FA73002BF3D17B681B6800221A7100234F
:10AF700018461437BD465DF8047B704780B584B031
:10AF800000AF78600023FB600023BB7207F10A0367
:10AF90001846FFF797FD7B681B681A687B685B683B
:10AFA0009A421CD97B681B681A68013A1A601B68B0
:10AFB0001B7819467868FFF78DFFF8607B689A6800
:10AFC0007B681B681B68D31AFB727B681B681B7944
:10AFD000FA7A9A4203D97B681B68FA7A1A71BB7AAB
:10AFE0001846FFF77AFDFB6818461037BD4680BD4E
:10AFF00090B585B000AF786039603B68FB60002396
:10B00000FB7207F10B031846FFF75CFD7B681B68BA
:10B010001C68621C1A60F9687868FFF76FFF0346C6
:10B020002370FB7A1846FFF758FD00BF1437BD4662
:10B0300090BD80B582B000AF78607B689B68002BC4
:10B040000CD07B685B697A6810697A6811687A68E5
:10B05000926898477B6800229A6000E000BF08373A
:10B06000BD4680BD0EB480B585B000AF7860FB6989
:10B07000002B0CD00023FB6007F12003FB6007F1DD
:10B080000C031A46F969786800F0AEF900E000BFD9
:10B090001437BD46BDE8804003B0704780B582B02C
:10B0A00000AF78600B46FB70FB780A2B03D10D21B3
:10B0B0007868FFF7F3FF7B681A687B689B68581C09
:10B0C000796888601344FA781A707B689A687B689C
:10B0D0005B689A4202D37868FFF7ABFF00BF08377E
:10B0E000BD4680BD80B586B000AFF860B9607A60BB
:10B0F0003B6000237B613B6803F00103002B21D000
:10B100000AE0BB680133BB607B6901337B61FB7C78
:10B110001946F868FFF7C2FFBB681B78FB74FB7C1D
:10B12000002BEED106E07B68013B7B602021F868B4
:10B13000FFF7B4FF7A687B699A422BD97B68002BB2
:10B14000F1D127E0BB68002B0BD0B86809F064FC94
:10B15000786106E07B68013B7B602021F868FFF79F
:10B160009DFF7A687B699A420ED97B68002BF1D1EA
:10B170000AE0BB680133BB607B6901337B61FB7C08
:10B180001946F868FFF78AFFBB681B78FB74FB7CE5
:10B19000002BEED100BF1837BD4680BD80B588B00A
:10B1A00000AFF860B9607A603B60BB68FB61012367
:10B1B000BB6107E0FA697B68B2FBF3F3FB61BB6933
:10B1C0000133BB61FA697B689A42F3D23A68BB6982
:10B1D0009A4201D93B68BB61FB6A03F00103002B73
:10B1E0001FD1BB6A002B1CD0FB6A03F00203002BAB
:10B1F00005D03B68002B02D13023FB7501E02023F2
:10B20000FB7507E0BB6A013BBB62FB7D1946F86832
:10B21000FFF744FFBB6A002B03D0BA69BB6A9A42AE
:10B22000F0D30123FB613B68012B03D93B68013B51
:10B230003B6009E0BA68FB69B2FBF3F33B613A6932
:10B240007B689A4200D205E0FB697A6802FB03F34F
:10B25000FB61E8E7BA68FB69B2FBF3F33B613B696A
:10B26000FA6902FB03F3BA68D31ABB60154A3B695B
:10B2700013441B781946F868FFF710FFFA697B68DA
:10B28000B2FBF3F3FB61FB69002BE3D1FB6A03F034
:10B290000103002B11D0BB6A002B0ED006E0BB6A65
:10B2A000013BBB622021F868FFF7F8FEBB6A002B68
:10B2B00003D0BA69BB6A9A42F1D300BF2037BD46BA
:10B2C00080BD00BF1060030080B588B002AFF86099
:10B2D000B9607A603B60BB68002BB8BF5B423B61E2
:10B2E00001237B6107E07B683A6992FBF3F33B61E2
:10B2F0007B6901337B617B683A699A42F3DA3A6889
:10B300007B699A4201D93B687B613B6A002B0AD07A
:10B31000BB68002B04DB7B6A03F00403002B02D024
:10B320003B6A013B3B627B6A03F00203002B02D0C5
:10B330003B68002B16D07B6A03F00103002B11D170
:10B340003B6A002B0ED006E03B6A013B3B622021AA
:10B35000F868FFF7A3FE3B6A002B03D07A693B6ACB
:10B360009A42F1D3BB68002B07DABB685B42BB6033
:10B370002D21F868FFF792FE08E07B6A03F00403D2
:10B38000002B03D02B21F868FFF788FE7B6A03F0BF
:10B390000203002B19D07B6A03F00103002B14D1A8
:10B3A0003B68002B11D13B6A002B0ED006E03B6AB4
:10B3B000013B3B623021F868FFF770FE3B6A002BCF
:10B3C00003D07A693B6A9A42F1D3B9687B6A0193E8
:10B3D0003B6A00933B687A68F868FFF7DFFE00BFBE
:10B3E0001837BD4680BD000080B58EB002AFF86052
:10B3F000B9607A60BB68002B00F08E81BB681B7857
:10B4000087F82F30BB680133BB6097F82F30002BD3
:10B4100000F0798197F82F30252B40F068810023C8
:10B420003B620123BB62BB681B7887F82F3097F81B
:10B430002F30302B0DD0302B1BDC2B2B11D02D2B94
:10B4400017D13B6A43F001033B62BB680133BB6029
:10B4500012E03B6A43F002033B62BB680133BB600E
:10B460000AE03B6A43F004033B62BB680133BB6004
:10B4700002E00023BB6200BFBB6A002BD3D10023D4
:10B48000FB6197F82F302A2B0CD17B681B68191DA4
:10B490007A6811601B68FA691344FB61BB68013369
:10B4A000BB601AE0BB681B7887F82F3097F82F3005
:10B4B0002F2B12D997F82F30392B0ED8BB680133B8
:10B4C000BB60FA6913469B0013445B001A4697F869
:10B4D0002F301344303BFB61D3E700237B62BB6812
:10B4E0001B7887F82F3097F82F302E2B1DD1BB6893
:10B4F0000133BB60BB681B7887F82F3097F82F307B
:10B500002F2B12D997F82F30392B0ED8BB68013367
:10B51000BB607A6A13469B0013445B001A4697F897
:10B520002F301344303B7B62E4E7BB681B7887F81D
:10B530002F3097F82F306C2B03D097F82F30682BD3
:10B5400007D1BB680133BB60BB681B7887F82F301D
:10B55000EFE797F82F30252B00F0BF80252BC0F2A6
:10B56000C180782B00F3BE80582BC0F2BB80583BC3
:10B57000202B00F2B78001A252F823F067B6020038
:10B58000E5B60200E5B60200E5B60200E5B6020047
:10B59000E5B60200E5B60200E5B60200E5B6020037
:10B5A000E5B60200E5B6020001B602001FB60200D1
:10B5B000E5B60200E5B60200E5B60200E5B6020017
:10B5C0001FB60200E5B60200E5B60200E5B60200CD
:10B5D000E5B60200E5B60200E5B60200A7B6020035
:10B5E000E5B60200E5B602008BB60200E5B6020041
:10B5F00043B60200E5B60200E5B6020067B60200F7
:10B600007B681B68191D7A6811601B68BB62BB6A86
:10B61000FB75FB7D1946F868FFF740FD63E07B682A
:10B620001B68191D7A6811601B68BB623B6A019335
:10B63000FB6900937B6A0A22B96AF868FFF744FE47
:10B6400051E07B681B68191D7A6811601B68BB623A
:10B65000B96A3B6A0193FB6900937B6A0A22F86826
:10B66000FFF79CFD3FE07B681B68191D7A6811603D
:10B670001B68BB62B96A3B6A0193FB6900937B6AF2
:10B680001022F868FFF78AFD2DE07B681B68191D02
:10B690007A6811601B68BB613B6AFA69B969F8682E
:10B6A000FFF720FD1FE07B681B68191D7A68116099
:10B6B0001B68BB623021F868FFF7F0FC7821F8685E
:10B6C000FFF7ECFCB96A00230193082300930823D9
:10B6D0001022F868FFF762FD05E02521F868FFF702
:10B6E000DDFC00E000BFBB680133BB6005E097F8FC
:10B6F0002F301946F868FFF7D1FCBB681B78002B88
:10B700007FF47CAE00E000BFFB681B7B002B04D005
:10B71000F868FFF78EFC00E000BF3037BD4680BD03
:10B7200080B582B000AF78607868FFF7FBFB034616
:10B7300018460837BD4680BD80B58AB000AF786036
:10B7400039607B681B8A043BFB613A68FB691344E0
:10B75000DA1CFB69B2FBF3F3FB767868FFF70EFCAB
:10B7600078617B69002B01D1002337E07B690022DF
:10B770001A717B6901225A71FB699AB27B69DA807E
:10B780007B697B62FB7E013B3B617B6A7A681A6066
:10B7900000233B621DE07868FFF7F0FBF860FB6870
:10B7A000002B0ED07B695B790133DAB27B695A7169
:10B7B0007B6AFA681A60FB687A681A60FB687B62C9
:10B7C00004E0786900F00EF8002307E03B6A0133DB
:10B7D0003B623A6A3B699A42DDD37B691846283757
:10B7E000BD4680BD80B58AB000AF78607B68FB61E4
:10B7F000FB695B79FB767B683B62FB7E013B7B618F
:10B8000000237B6205E03B6A1B683B627B6A013375
:10B810007B627A6A7B699A42F5D33B6A1B683B611B
:10B820007B683B6200237B620BE03B6A1B68FB602A
:10B83000396A3869FFF7DCFBFB683B627B6A0133DE
:10B840007B62FB7E7A6A9A42EFD300BF00BF283743
:10B85000BD4680BD80B584B000AF78607B68FB607A
:10B86000FB68043301211846FFF7CEFA00BF1037FA
:10B87000BD4680BD80B586B000AF78607B687B61D7
:10B880007B69043301211846FFF7D7FA0346FB60B2
:10B8900007F10C033B613B691B78002B02D17868F0
:10B8A000FFF7A0FF00BF1837BD4680BD80B590B040
:10B8B00000AFF860B9607A603B60FB687B62FB6850
:10B8C000FB637B6ADB881A467B6A5B7903FB02F3C6
:10B8D000043B3B627B6ADB88FB613B681A1DFB69AA
:10B8E000B2FBF3F3BB633B680433FA69B3FBF2F2D8
:10B8F000F96901FB02F29B1A7B637B681A683B685B
:10B9000013443A6A9A4203D23A6A3B68D31A01E076
:10B910007B681B683B637B683A6B1A6005E0FB6BD6
:10B920001B68FB63BB6B013BBB63BB6B002BF6D19E
:10B930000023FB62FA697B6BD31ABB62BA6A3B6B6A
:10B94000934228BF1346BB622AE0BA68FB6A1344DD
:10B95000BB61FA6B7B6B134404337B6197F848300F
:10B96000002B05D0BA6A7969B86908F07DFF04E058
:10B97000BA6AB969786908F077FF00237B63FB6BCB
:10B980001B68FB633A6BBB6AD31A3B63FA6ABB6AF8
:10B990001344FB62FA693B6B934228BF1346BB62B8
:10B9A0003B6B002BD1D100BF00BF4037BD4680BDEF
:10B9B00080B588B002AFF860B9607A603B607B68A0
:10B9C0007B6107F11402002300933B68B968F868B3
:10B9D000FFF76CFF00BF1837BD4680BD80B588B04B
:10B9E00002AFF860B9607A603B607B687B6107F109
:10B9F0001402012300933B68B968F868FFF756FF0B
:10BA000000BF1837BD4680BD80B483B000AF034689
:10BA1000FB71FB7903F01F02074997F907305B09B7
:10BA2000012000FA02F2603341F8232000BF0C37F6
:10BA3000BD465DF8047B704700E100E080B483B050
:10BA400000AF78607B6800221A60BFF35F8F00BF91
:10BA500000BF0C37BD465DF8047B704741DF70477F
:10BA600000BF184680B584B000AF0023FB70FB1CFC
:10BA70001846FFF727F8F1EE103A7B607B68FB6011
:10BA8000FB6823F09F03BB60BB68E1EE103A00BF88
:10BA9000BFF35F8F00BF2620FFF7B6FFFB78184685
:10BAA000FFF71BF800BF1037BD4680BD80B500AF63
:10BAB000064B00221A700648FFF7C0FF05490648EA
:10BAC00000F013F90023184680BD00BF90680020E5
:10BAD0008C6800202C6003009468002080B582B040
